:03000000020D24CA
:0C0D2400787FE4F6D8FD758161020AD1E9
:1005AB000102040810204080000000000000000041
:1005BB000000000000000000010204081020408031
:1005CB00FFFF7FC0BF9FDFB7DF9FDFC0DFFF0FE005
:1005DB00E7CFF7DFE7CF8383FBBFF39F05C0FFFFB9
:1005EB000000002004400A00C20C24122812C64C42
:1005FB0000000000000002000000000002000000EC
:10060B0001030200030100020201010200010100CB
:10061B00070505050704040404040704070107077D
:10062B00040704070505070404070107040707016E
:10063B000705070704040404070507050707050753
:10064B000407F8F9FAFAFBFAFAFCFCFDFDFDFDFED6
:10065B00FEFEFEFEFEFEFF8B5B146704676743AC7A
:10066B00093382C7052156849AC1E30265676989FC
:0C067B006F71E1E1656589896B69678337
:100CB8007F04120DDB758911758C3C758AB075A897
:0B0CC8008AD28C120C9C7F01020D30C0
:1009D700120CEBE4FF120DD4E4FF120D7FE4FF12BB
:1009E7000D5FE4FF120D30E4FF12000EE4F52DF564
:1009F7004E754F00755034F551755200755339F5E2
:100A070054755500755637F557755800755938FBA5
:100A17007A007931120B3F7549F7E4F52F753007E6
:100A2700F52E751B0112094F120DE88F4A755200FA
:100A370075530075543975550075560075573775D8
:100A47005810755900755A00755B4A7B007A007912
:040A57003102081749
:0B0D5400120C801207537F0102000EFA
:100CD3008F4EC28E7F01120D48E4FF120D89E4FF8F
:080CE300120D3CAF4E020D6A38
:040D15007F017E00DC
:0B0D1900EF1FAC0670011E4C70F622AC
:060DE200EFC4540FFF22D4
:050DF400EF540FFF2287
:070DBF00EFC454F02DFF22E8
:040BF100AE05AD0799
:100BF500120DE2AC07AF05120DF4AD07EE25E024AA
:100C050013F582E43406F583E4932C14FC64107028
:100C150001FCECF470027C0FEE25E02414F582E46F
:100C25003406F583E4932D14FD64107001FDEDF495
:090C350070027D0FAF04020DBF37
:0A0D7500E509C41313135401FF2213
:090D9300E509C413135401FF2209
:08000300E509C4135401FF22BA
:070DC600E509C45401FF22FE
:080DB700E50913135403FF22A8
:060DE800E5095403FF229F
:090D9C00E50AC413135403FF22FD
:070DCD00E50AC45403FF22F4
:090DA500E50A1313135401FF22A7
:060DEE00E50A5407FF2294
:0D000E0053097FEFC433333354804209227D
:0C0D30005309BFEFC4333354C042092202
:0B0D5F005309DFEFC43354E0420922C7
:0A0D7F005309EFEFC454F0420922BB
:0B0D6A005309F3EF25E025E0420922C9
:070DD4005309FCEF42092264
:0C0D3C00530A3FEFC4333354C0420A2274
:0A0D8900530ACFEFC454F0420A22CF
:0C0D4800530AF7EF33333354F8420A2209
:070DDB00530AF8EF420A225F
:10068700120DE8EFC31364017020EF5401FFE52E4C
:1006970025E0240BF582E43406F583E5822FF58205
:1006A700E43583F583E493FD8002AD2EAF30120B62
:1006B700F18F4DAF4D120DE28F4AAF4D120DF48FF2
:1006C7004BE54DB5080C7F01120CD37F01120D7F4E
:1006D7001F22E54AFD7C00D3940774809480502F35
:1006E700AF4AA8077401088002C333D8FCF54CE56C
:1006F7004B25E0240DF8E6554CFFAE4AA8060880C6
:1007070002C313D8FC640170037F01227F0022C358
:10071700ED9408EC64809480402FE54A24F8FFF8B4
:100727007401088002C333D8FCF54CE54B25E0245F
:100737000EF8E6554CFEA807088002C313D8FC64E0
:0B0747000170037F01227F00227F0071
:010752002284
:100BA000754E4E754F6D7A3090FFFFAD8CED250977
:100BB000FFE433FE7C00EF250AFFEC3EFEEF254903
:100BC000FFEC3EFEEF252FFFEC3EFEEF2530FFEC65
:100BD0003EFEEF252EFFEC3EFEAC4EAD4F12008DDB
:100BE000EF2439FFEE3AFEAC83AD8212009FAF05D1
:010BF00022E2
:10020800120DE88F4E7552007553007554397555A7
:1002180000755600755737755810755900755A008E
:10022800755B4E7B007A007931120817E54EC313CF
:1002380064017020E54E5401FFE52E25E0240BF5FE
:1002480082E43406F583E5822FF582E43583F5836D
:10025800E493F52EAD2EAF30120BF18F30120DE274
:100268008F4AAF30120DF48F4BAF4A7E00D3EF9414
:100278000774809480501AAD4AA80574010880025A
:10028800C333D8FCF54CE54B25E0240DF8E6454C86
:10029800F6C3EF9408EE64809480401CE54A24F885
:1002A800FFF87401088002C333D8FCF54CE54B25F0
:1002B800E0240EF8E6454CF6120DC6EF6003020383
:1002C8008AF552755300755434F5557556007557AF
:1002D80039F558755900755A37F55B755C00755DC9
:1002E80038755E10F55F75600075614DFB7A0079B1
:1002F8003112038BE54DC31364017020E54D5401A1
:10030800FFE52F25E0240BF582E43406F583E5822A
:100318002FF582E43583F583E493F52FAD2FAF49AC
:10032800120BF18F49120DE28F4AAF49120DF48F6B
:100338004BAF4A7E00D3EF940774809480501BAD76
:100348004AA8057401088002C333D8FCF4F54CE5CB
:100358004B25E0240DF8E6554CF6C3EF9408EE64FF
:10036800809480401DE54A24F8FFF8740108800253
:10037800C333D8FCF4F54CE54B25E0240EF8E655DC
:020388004CF631
:01038A002250
:10094F00754D01E54D70030209D6120BA08F0812E9
:10095F000DE28F4BAF08120DF48F4CAF4B7E00D3CF
:10096F00EF9407748094805027AD4BA8057401084D
:10097F008002C333D8FCF9E54C25E0240DF8E6FDE1
:10098F0059700DE54C25E0240DF8ED49F6E4F54DD1
:10099F00C3EF9408EE6480948040A8E54B24F8FFE1
:1009AF00F87401088002C333D8FCF9E54C25E02424
:1009BF000EF8E6FF59708CE54C25E0240EF8EF4950
:0709CF00F6E4F54D020952A8
:0109D60022FE
:100C3E00E4F54AC3E54A9410748094805033E54A33
:100C4E0025E0240DF8E6F4FBE54A25E0240EF8E64F
:100C5E00F4F54EE54A9005AB93FFE54A9005BB933C
:100C6E00FD1208BAE4F54EFBFDFF1208BA054A80E4
:010C7E00C2B3
:010C7F002252
:100CEB00E4FFEFC39420748094805009740D2FF8A7
:050CFB00E4F60F80ED9E
:010D000022D0
:10075300E52D75F06484FFE4FEEEC3940574809484
:1007630080502EEE25E02421F8C000E6FDEF75F061
:1007730005A4241BF582E43406F583E5822EF58275
:10078300E43583F583E493C454F04DD000F60E8032
:10079300C8E52D75F06484E5F075F00A84FFE4FE86
:1007A300EEC39405748094805027EE25E02422F84C
:1007B300E6FDEF75F005A4241BF582E43406F5830A
:1007C300E5822EF582E43583F583E4934DF60E80BE
:1007D300CFE52D75F00A84AFF0E4FEEEC394057403
:1007E300809480502EEE25E02422F8C000E6FDEF31
:1007F30075F005A4241BF582E43406F583E5822E07
:10080300F582E43583F583E493C454F04DD000F6C8
:030813000E80C88C
:0108160022BF
:100C8000E4FFEFC3942074809480500FEF9005EB45
:0B0C900093FE740D2FF8A6060F80E7FE
:010C9B002236
:100C9C00E4FFEFC3942074809480500FEF9005CB49
:0B0CAC0093FE740D2FF8A6060F80E7E2
:010CB700221A
:0208BA00A9078C
:1008BC00E4FFEFC39408748094805019E54EC41380
:1008CC001313540124FF92B4E54E25E0F54EC2B645
:1008DC00D2B60F80DDE4FFEFC3940874809480508F
:1008EC0016EBC4131313540124FF92B4EB25E0FB55
:1008FC00C2B6D2B60F80E0E4FFEFC39408748094C4
:10090C00805016EDC4131313540124FF92B4ED253B
:10091C00E0FDC2B6D2B60F80E0E4FFEFC3940874DA
:10092C008094805016E9C4131313540124FF92B41D
:10093C00E925E0F9C2B6D2B60F80E0D2B5120D159A
:02094C00C2B532
:01094E002286
:100A5B007590EF209114E52E640270057F02120D44
:100A6B00D4E52E70057F03120DD4120D157590DF92
:100A7B00209016E52E640170057F02120DD4E52E31
:100A8B00640370057F03120DD4209216E52E6403C8
:100A9B0070057F02120DD4E52E640170057F0312E1
:100AAB000DD4120D157590BF209114E52E70057F96
:100ABB0002120DD4E52E640270057F03120DD47F54
:060ACB00017E00020D197E
:100D01007590DF20910DE4FF120D307F02120CD39C
:040D11001209D722CA
:03000B0002049F4D
:10049F00C0E0C0F0C083C082C0D075D000C005C01E
:0304AF0006C0077D
:1004B200120DEEEF14FF120DDB758C3C758AB01233
:1004C2000DEEEF700A7F04120DDB7F01120D5F1239
:1004D2000DA5EF64016003020596120DCDAE071261
:1004E2000DB7EF25E025E02477F582E43406F583A5
:1004F200E5822EF582E43583F583E493FE120D9CAA
:10050200EF7050C28EEE75F00A84AFF0EE75F064B3
:1005120084FD75F007A42FF582E435F0F583E582BA
:10052200244CF582E5833406F583E493F50B75F0EC
:1005320007EDA42FF582E435F0F583E5822461F519
:1005420082E5833406F583E493F50C850B8D850CE7
:100552008BD28E120D9CEE75F00A8475F00A84EF30
:10056200C395F0500B120D9CEF04FF120D3C802836
:10057200E4FF120D3C120DCDC3EF940374809480FE
:10058200500B120DCDEF04FF120D89800BE4FF1208
:080592000D488004C28ED2B7AF
:10059A00D007D006D005D0D0D082D083D0F0D0E01A
:0105AA00321E
:03001B00020DAE25
:090DAE00B2B7850B8D850C8B3268
:100AD100120CB8E4FF120CD3120D93EF64017008ED
:100AE100120D01120C3E80F0120D93EF703F120AAD
:100AF1005B120003EF6401702F120687EF6401702F
:100B01000C7F03120CD37F01120D30801B120208DF
:100B1100120DC6EF6401700512094F052DE4FF1295
:100B21000DD4120D5F120D7F120C3E80BB120D759C
:0E0B3100EF7003120D54120D01120C3E80AA3B
:060817008B4F8A5089514D
:10081D00AB59AA5AA95B12001EFFAB55AA56A95790
:10082D0012001EFEF8EF088002C333D8FCFFAB4F59
:10083D00AA50A95112014112001E4F120059AB5579
:10084D00AA56A957740212003712001EC3940874D9
:10085D008094804013E4120059AB4FAA50A95190D7
:10086D00000175F0011200F4AB527E00E5542558DD
:10087D00F9EE3553FAC003C002C001AB4FAA50A91F
:10088D0051120141D082D083D0E06B7008E96582AE
:10089D007003EA65837015AB52AA53A954C003C007
:0C08AD0002C001AB4FAA50A9511201611A
:0108B900221C
:06038B008B4F8A508951DE
:10039100E4FFAB52AA53A954120141C003C002C0E9
:1003A10001AB4FAA50A951120141D082D083D0E0B4
:1003B1006B7008E965827003EA6583701AAB58AA0D
:1003C10059A95A12001EFEAB5BAA5CA95D12001E60
:1003D100C39E400302049EAB52AA53A95412014189
:1003E10012001EFEAB5BAA5CA95D12001EFDF8EEB9
:1003F100088002C313D8FCFE530603AB5FAA60A9B1
:1004010061EE120059AB5BAA5CA95D12001EFEF8F9
:100411007403088002C333D8FCFE6306FFAB52AA03
:1004210053A95412014112001E5E120059AB5BAA7E
:100431005CA95D740212003712001EC39408748017
:1004410094804057E4120059AB52AA53A95490002A
:100451000175F0011200F4AB55E55E7C002557F9FA
:10046100EC3556FAC003C002C001AB52AA53A954DD
:10047100120141D082D083D0E06B7008E9658270AF
:1004810003EA65837015AB55AA56A957C003C0028C
:0D049100C001AB52AA53A9541201617F01B2
:01049E00223B
:060B3F008B4B8A4C894D2E
:100B4500AB51AA52A953C003C002C001AB4BAA4C7A
:100B5500A94D120161AB51AA52A953C003C002C0ED
:100B650001AB4EAA4FA950120161AB54AA55A95623
:100B7500E4120059AB57AA58A959120059FFEFC3FF
:100B85009410748094805012AB51AA52A9538F824D
:0A0B9500758300E412006B0F80E48A
:010B9F002233
:10001E00BB010689828A83E0225002E722BBFE02E0
:09002E00E32289828A83E4932213
:10003700BB010989828A83F8E028F022500327F759
:1000470022BBFE05F8E328F3228A838982F8E4932A
:0200570028225D
:10005900BB010689828A83F0225002F722BBFE0186
:02006900F32280
:10006B00F8BB010DE58229F582E5833AF583E8F0CB
:10007B00225006E92582C8F622BBFE05E92582C877
:02008B00F2225F
:10008D00EF8DF0A4A8F0CF8CF0A428CE8DF0A42E87
:02009D00FE2241
:10009F00BC000BBE0029EF8DF084FFADF022E4CC45
:1000AF00F875F008EF2FFFEE33FEEC33FCEE9DEC0E
:1000BF00984005FCEE9DFE0FD5F0E9E4CEFD22ED54
:1000CF00F8F5F0EE8420D21CFEADF075F008EF2F9E
:1000DF00FFED33FD4007985006D5F0F222C398FD8F
:0500EF000FD5F0EA222C
:1000F400BB010DC58229C582C5833AC5830201B0FF
:100104005011C58229F808E5F026F618F5F0E582C5
:1001140036F622BBFE11C58229F808E225F0F5F077
:10012400F218E23582F222F8E58229F582E5832A83
:0D013400F58374019325F0F5F0E493382273
:10014100BB010789828A830201D85005E9F80201BF
:10015100C6BBFE05E9F80201EA89828A830201FC35
:10016100BB011A89828A83D0F0D0E0F8D0E0F9D0BF
:10017100E0FAD0E0FBE8C0E0C0F00201E15016E98E
:10018100F8D083D082D0E0F9D0E0FAD0E0FBC08291
:10019100C0830201CFBBFE16E9F8D083D082D0E044
:0F01A100F9D0E0FAD0E0FBC082C0830201F32264
:1001B000C5F0F8A3E028F0C5F0F8E58215827002DA
:0601C0001583E038F02277
:0901C600E6FB08E6FA08E6F9225E
:0901CF00EBF608EAF608E9F62255
:0901D800E0FBA3E0FAA3E0F92228
:0901E100EBF0A3EAF0A3E9F0221F
:0901EA00E2FB08E2FA08E2F92246
:0901F300EBF208EAF208E9F2223D
:0C01FC00E493FB740193FA740293F9225F
:00000001FF
